:020000040000FA
:080000002100951321002A29BB
:080008008231042A3D00101CA6
:100010000C2857213D0010103D00901D08000F08CE
:100020008700901120007839031D182822200C2801
:10003000B8200C282000121D1A2829210620200093
:1000400012111A280719882820083C39343C031D4E
:10005000422830103808B81F30140630390203190E
:100060005828053039020319792809303902031953
:100070007B2808303902031981283D000E12200028
:100080000C3051200C30A0000830A100A01708004F
:100090003D000E122000301854289620483043208E
:1000A0004830A400A4170800A413A5010C304F2861
:1000B00002303B020319682803303B0203196C2805
:1000C00001303B02031D3D28A130B10012306F28E2
:1000D000B330B10043306F28F630B1000A30B200BF
:1000E000BF08031D48283E02031848283E08B200F6
:1000F0004828B01448283011BA08031D3015B02024
:100100004828BF303019013EB1000130B200482804
:1001100030188F2896200830241F09175128B01C4A
:100120000800B0103A083D0096000800A413A5018D
:10013000B20803190800310884008130850020309E
:100140008600203087000301083C0319AD28120007
:100150001E00A50A2508B20BA4280408B100080057
:100160002000C7200301AD01AC05AC06AC170800A8
:100170004030071A08000719B328A9080319C7282F
:10018000AC13CC202000C9000130AD00AC174030CA
:10019000A900A801A8170800043029020319DE28C5
:1001A000403029020319F228013029020319D92805
:1001B000023452304A02031D023401004C08C800C8
:1001C0004D0886004A0887004B0823009200070864
:1001D000910045300602031D0134143095002221A0
:1001E00015110134480886002A308400203085002B
:1001F00020308700243023009500120086079300EA
:100200001200860794008703031909292221910A05
:10021000FD28860803190E29950103349512222121
:1002200095018716151400000000110014023F39D3
:10023000031D053411001302031D04349103870BC1
:100240001229013455309600AA309600951400000A
:1002500000000800FC30990051301A05513C031D84
:100260002C2920008C1D42290608DF3C031D3C2957
:100270000408BE3C031942294C21031942292100DC
:100280009517002A270090309B0057213D008E01D2
:100290008E158E1D48291A2884018230850012008F
:1002A000013E031D08001200C038013E08003D0059
:1002B00093019001143091000930920084012030A4
:1002C00085006A30870000301A00870B64293D00E2
:1002D0000E1796010E120E13901D712990112921EF
:1002E0006C29163098001E3099001A309A002000B0
:1002F0001830A2002030A6002A30AA002930AE0013
:0C0300002030A300A700AB00AF00422893
:04030C000034003485
:0E03420012340134003402340234003400342A
:10035000083450341D34EE34EE34013400340034AB
:10036000003401340134093402344334003402349B
:10037000013400348034323409340434003400341D
:10038000013402340234013400340534243400349E
:100390001034013404342434023402340534243457
:1003A000063400340134053424340134013401347A
:1003B0000734053482340334083400347F3409347C
:1003C00004340134003402340A340034003400347C
:1003D00007340534813402344034003400340734A7
:1003E0000534013402344034003400340A34033418
:1003F000303400343034003430340034313400349C
:020000040001F9
:02000E008C0F55
:02001000CE1F01
:00000001FF
